{
  "contractName": "Carrier",
  "abi": [
    {
      "constant": true,
      "inputs": [
        {
          "name": "",
          "type": "uint256"
        }
      ],
      "name": "countries",
      "outputs": [
        {
          "name": "",
          "type": "bytes32"
        }
      ],
      "payable": false,
      "stateMutability": "view",
      "type": "function"
    },
    {
      "constant": true,
      "inputs": [],
      "name": "carrierId",
      "outputs": [
        {
          "name": "",
          "type": "bytes32"
        }
      ],
      "payable": false,
      "stateMutability": "view",
      "type": "function"
    },
    {
      "constant": true,
      "inputs": [],
      "name": "carrierName",
      "outputs": [
        {
          "name": "",
          "type": "string"
        }
      ],
      "payable": false,
      "stateMutability": "view",
      "type": "function"
    },
    {
      "constant": true,
      "inputs": [],
      "name": "admin",
      "outputs": [
        {
          "name": "",
          "type": "address"
        }
      ],
      "payable": false,
      "stateMutability": "view",
      "type": "function"
    },
    {
      "inputs": [
        {
          "name": "_carrierId",
          "type": "bytes32"
        },
        {
          "name": "_carrierName",
          "type": "string"
        }
      ],
      "payable": false,
      "stateMutability": "nonpayable",
      "type": "constructor"
    },
    {
      "anonymous": false,
      "inputs": [
        {
          "indexed": true,
          "name": "_fromCarrier",
          "type": "address"
        },
        {
          "indexed": true,
          "name": "_toCarrier",
          "type": "address"
        },
        {
          "indexed": true,
          "name": "_hashedMobileNo",
          "type": "uint256"
        },
        {
          "indexed": false,
          "name": "_portAddress",
          "type": "address"
        }
      ],
      "name": "PortRequestCreated",
      "type": "event"
    },
    {
      "constant": true,
      "inputs": [
        {
          "name": "_country",
          "type": "bytes32"
        }
      ],
      "name": "getCirclesByCountry",
      "outputs": [
        {
          "name": "circles",
          "type": "bytes32[]"
        }
      ],
      "payable": false,
      "stateMutability": "view",
      "type": "function"
    },
    {
      "constant": true,
      "inputs": [],
      "name": "getCountries",
      "outputs": [
        {
          "name": "_countries",
          "type": "bytes32[]"
        }
      ],
      "payable": false,
      "stateMutability": "view",
      "type": "function"
    },
    {
      "constant": true,
      "inputs": [
        {
          "name": "_country",
          "type": "bytes32"
        },
        {
          "name": "_circle",
          "type": "bytes32"
        }
      ],
      "name": "circleExists",
      "outputs": [
        {
          "name": "circlePresent",
          "type": "bool"
        }
      ],
      "payable": false,
      "stateMutability": "view",
      "type": "function"
    },
    {
      "constant": false,
      "inputs": [
        {
          "name": "_fromCarrier",
          "type": "address"
        },
        {
          "name": "_toCarrier",
          "type": "address"
        },
        {
          "name": "_toCountry",
          "type": "bytes32"
        },
        {
          "name": "_toCircle",
          "type": "bytes32"
        },
        {
          "name": "_hashedMobileNo",
          "type": "uint256"
        }
      ],
      "name": "createPortRequest",
      "outputs": [],
      "payable": false,
      "stateMutability": "nonpayable",
      "type": "function"
    },
    {
      "constant": false,
      "inputs": [
        {
          "name": "_country",
          "type": "bytes32"
        },
        {
          "name": "_circles",
          "type": "bytes32[]"
        }
      ],
      "name": "addCountry",
      "outputs": [],
      "payable": false,
      "stateMutability": "nonpayable",
      "type": "function"
    },
    {
      "constant": false,
      "inputs": [
        {
          "name": "_country",
          "type": "bytes32"
        },
        {
          "name": "_circle",
          "type": "bytes32"
        }
      ],
      "name": "addCircle",
      "outputs": [],
      "payable": false,
      "stateMutability": "nonpayable",
      "type": "function"
    },
    {
      "constant": false,
      "inputs": [
        {
          "name": "_port",
          "type": "address"
        }
      ],
      "name": "acceptPortRequest",
      "outputs": [],
      "payable": false,
      "stateMutability": "nonpayable",
      "type": "function"
    },
    {
      "constant": false,
      "inputs": [
        {
          "name": "_port",
          "type": "address"
        }
      ],
      "name": "rejectPortRequest",
      "outputs": [],
      "payable": false,
      "stateMutability": "nonpayable",
      "type": "function"
    },
    {
      "constant": false,
      "inputs": [
        {
          "name": "_port",
          "type": "address"
        }
      ],
      "name": "portCompleted",
      "outputs": [],
      "payable": false,
      "stateMutability": "nonpayable",
      "type": "function"
    }
  ],
  "bytecode": "0x608060405234801561001057600080fd5b506040516113fe3803806113fe83398101806040528101908080519060200190929190805182019291905050508160008160001916905550806001908051906020019061005e929190610066565b50505061010b565b828054600181600116156101000203166002900490600052602060002090601f016020900481019282601f106100a757805160ff19168380011785556100d5565b828001600101855582156100d5579182015b828111156100d45782518255916020019190600101906100b9565b5b5090506100e291906100e6565b5090565b61010891905b808211156101045760008160009055506001016100ec565b5090565b90565b6112e48061011a6000396000f3006080604052600436106100c5576000357c0100000000000000000000000000000000000000000000000000000000900463ffffffff1680630241c5a8146100ca57806308e9daa51461010d57806351fb79391461015657806376cdebe21461019957806380ba2de4146101d85780638ece96751461020b57806394221c7e1461024e578063b33f19f8146102d4578063b91a3ff21461035d578063beca8009146103b4578063f05d1bf114610420578063f1bb2a1d146104b0578063f851a44014610524575b600080fd5b3480156100d657600080fd5b5061010b600480360381019080803573ffffffffffffffffffffffffffffffffffffffff16906020019092919050505061057b565b005b34801561011957600080fd5b50610138600480360381019080803590602001909291905050506105fa565b60405180826000191660001916815260200191505060405180910390f35b34801561016257600080fd5b50610197600480360381019080803573ffffffffffffffffffffffffffffffffffffffff16906020019092919050505061061d565b005b3480156101a557600080fd5b506101d66004803603810190808035600019169060200190929190803560001916906020019092919050505061069c565b005b3480156101e457600080fd5b506101ed610823565b60405180826000191660001916815260200191505060405180910390f35b34801561021757600080fd5b5061024c600480360381019080803573ffffffffffffffffffffffffffffffffffffffff169060200190929190505050610829565b005b34801561025a57600080fd5b5061027d60048036038101908080356000191690602001909291905050506108a8565b6040518080602001828103825283818151815260200191508051906020019060200280838360005b838110156102c05780820151818401526020810190506102a5565b505050509050019250505060405180910390f35b3480156102e057600080fd5b5061035b600480360381019080803573ffffffffffffffffffffffffffffffffffffffff169060200190929190803573ffffffffffffffffffffffffffffffffffffffff169060200190929190803560001916906020019092919080356000191690602001909291908035906020019092919050505061091f565b005b34801561036957600080fd5b5061039a60048036038101908080356000191690602001909291908035600019169060200190929190505050610a75565b604051808215151515815260200191505060405180910390f35b3480156103c057600080fd5b506103c9610ac1565b6040518080602001828103825283818151815260200191508051906020019060200280838360005b8381101561040c5780820151818401526020810190506103f1565b505050509050019250505060405180910390f35b34801561042c57600080fd5b50610435610b1d565b6040518080602001828103825283818151815260200191508051906020019080838360005b8381101561047557808201518184015260208101905061045a565b50505050905090810190601f1680156104a25780820380516001836020036101000a031916815260200191505b509250505060405180910390f35b3480156104bc57600080fd5b50610522600480360381019080803560001916906020019092919080359060200190820180359060200190808060200260200160405190810160405280939291908181526020018383602002808284378201915050505050509192919290505050610bbb565b005b34801561053057600080fd5b50610539610d8e565b604051808273ffffffffffffffffffffffffffffffffffffffff1673ffffffffffffffffffffffffffffffffffffffff16815260200191505060405180910390f35b8073ffffffffffffffffffffffffffffffffffffffff1663dfc1582f6040518163ffffffff167c0100000000000000000000000000000000000000000000000000000000028152600401600060405180830381600087803b1580156105df57600080fd5b505af11580156105f3573d6000803e3d6000fd5b5050505050565b60048181548110151561060957fe5b906000526020600020016000915090505481565b8073ffffffffffffffffffffffffffffffffffffffff1663e2b353d26040518163ffffffff167c0100000000000000000000000000000000000000000000000000000000028152600401600060405180830381600087803b15801561068157600080fd5b505af1158015610695573d6000803e3d6000fd5b5050505050565b600560009054906101000a900473ffffffffffffffffffffffffffffffffffffffff1673ffffffffffffffffffffffffffffffffffffffff163373ffffffffffffffffffffffffffffffffffffffff16141515610787576040517f08c379a00000000000000000000000000000000000000000000000000000000081526004018080602001828103825260238152602001807f53656e646572206973206e6f74207468652061646d696e206f6620436172726981526020017f65722e000000000000000000000000000000000000000000000000000000000081525060400191505060405180910390fd5b60016003600084600019166000191681526020019081526020016000206000836000191660001916815260200190815260200160002060006101000a81548160ff0219169083151502179055506002600083600019166000191681526020019081526020016000208190806001815401808255809150509060018203906000526020600020016000909192909190915090600019169055505050565b60005481565b8073ffffffffffffffffffffffffffffffffffffffff1663a6e3ea726040518163ffffffff167c0100000000000000000000000000000000000000000000000000000000028152600401600060405180830381600087803b15801561088d57600080fd5b505af11580156108a1573d6000803e3d6000fd5b5050505050565b606060026000836000191660001916815260200190815260200160002080548060200260200160405190810160405280929190818152602001828054801561091357602002820191906000526020600020905b815460001916815260200190600101908083116108fb575b50505050509050919050565b6000858585858561092e610db4565b808673ffffffffffffffffffffffffffffffffffffffff1673ffffffffffffffffffffffffffffffffffffffff1681526020018573ffffffffffffffffffffffffffffffffffffffff1673ffffffffffffffffffffffffffffffffffffffff1681526020018460001916600019168152602001836000191660001916815260200182815260200195505050505050604051809103906000f0801580156109d8573d6000803e3d6000fd5b509050818573ffffffffffffffffffffffffffffffffffffffff168773ffffffffffffffffffffffffffffffffffffffff167f718b043b14544f95d1313302fec12ded4a6ec691f49ffd762c267be722c784c884604051808273ffffffffffffffffffffffffffffffffffffffff1673ffffffffffffffffffffffffffffffffffffffff16815260200191505060405180910390a4505050505050565b60006003600084600019166000191681526020019081526020016000206000836000191660001916815260200190815260200160002060009054906101000a900460ff16905092915050565b60606004805480602002602001604051908101604052809291908181526020018280548015610b1357602002820191906000526020600020905b81546000191681526020019060010190808311610afb575b5050505050905090565b60018054600181600116156101000203166002900480601f016020809104026020016040519081016040528092919081815260200182805460018160011615610100020316600290048015610bb35780601f10610b8857610100808354040283529160200191610bb3565b820191906000526020600020905b815481529060010190602001808311610b9657829003601f168201915b505050505081565b6000600560009054906101000a900473ffffffffffffffffffffffffffffffffffffffff1673ffffffffffffffffffffffffffffffffffffffff163373ffffffffffffffffffffffffffffffffffffffff16141515610ca8576040517f08c379a00000000000000000000000000000000000000000000000000000000081526004018080602001828103825260238152602001807f53656e646572206973206e6f74207468652061646d696e206f6620436172726981526020017f65722e000000000000000000000000000000000000000000000000000000000081525060400191505060405180910390fd5b6004839080600181540180825580915050906001820390600052602060002001600090919290919091509060001916905550816002600085600019166000191681526020019081526020016000209080519060200190610d09929190610dc4565b50600090505b8151811015610d8957600160036000856000191660001916815260200190815260200160002060008484815181101515610d4557fe5b906020019060200201516000191660001916815260200190815260200160002060006101000a81548160ff0219169083151502179055508080600101915050610d0f565b505050565b600560009054906101000a900473ffffffffffffffffffffffffffffffffffffffff1681565b60405161047c80610e3d83390190565b828054828255906000526020600020908101928215610e06579160200282015b82811115610e05578251829060001916905591602001919060010190610de4565b5b509050610e139190610e17565b5090565b610e3991905b80821115610e35576000816000905550600101610e1d565b5090565b905600608060405234801561001057600080fd5b5060405160a08061047c8339810180604052810190808051906020019092919080519060200190929190805190602001909291908051906020019092919080519060200190929190505050846000806101000a81548173ffffffffffffffffffffffffffffffffffffffff021916908373ffffffffffffffffffffffffffffffffffffffff16021790555083600160006101000a81548173ffffffffffffffffffffffffffffffffffffffff021916908373ffffffffffffffffffffffffffffffffffffffff160217905550806005819055505050505050610385806100f76000396000f300608060405260043610610057576000357c0100000000000000000000000000000000000000000000000000000000900463ffffffff168063a6e3ea721461005c578063dfc1582f14610073578063e2b353d21461008a575b600080fd5b34801561006857600080fd5b506100716100a1565b005b34801561007f57600080fd5b50610088610152565b005b34801561009657600080fd5b5061009f610203565b005b6040805190810160405280600881526020017f6163636570746564000000000000000000000000000000000000000000000000815250600490805190602001906100ec9291906102b4565b507f3e4dab15f6ea270908e54b8361545c06cac6c1088a767c2755f9223406e8cee533604051808273ffffffffffffffffffffffffffffffffffffffff1673ffffffffffffffffffffffffffffffffffffffff16815260200191505060405180910390a1565b6040805190810160405280600981526020017f636f6d706c6574656400000000000000000000000000000000000000000000008152506004908051906020019061019d9291906102b4565b507f127354a75bbb1a400d82f886face56aecfa33a2a1109d4a6cca59c830cc95e6833604051808273ffffffffffffffffffffffffffffffffffffffff1673ffffffffffffffffffffffffffffffffffffffff16815260200191505060405180910390a1565b6040805190810160405280600881526020017f72656a65637465640000000000000000000000000000000000000000000000008152506004908051906020019061024e9291906102b4565b507f7c34b7e2e9d9c39c7d52371fc6afd7583430b08591259b3f5d6bb4b759fa57f633604051808273ffffffffffffffffffffffffffffffffffffffff1673ffffffffffffffffffffffffffffffffffffffff16815260200191505060405180910390a1565b828054600181600116156101000203166002900490600052602060002090601f016020900481019282601f106102f557805160ff1916838001178555610323565b82800160010185558215610323579182015b82811115610322578251825591602001919060010190610307565b5b5090506103309190610334565b5090565b61035691905b8082111561035257600081600090555060010161033a565b5090565b905600a165627a7a72305820de129eea85ae4f52df9c1592a82745c94217430c39de0e06c2f93c51313bbcd10029a165627a7a7230582032f891ab7e54b52f19b6f313ca0f8086c3b08d1e247db81439d936a3cea62b0f0029",
  "source": "pragma solidity 0.4.24;\n\nimport \"./Port.sol\";\n\ncontract Carrier {\n\n    bytes32 public carrierId;\n    string public carrierName;\n    mapping(bytes32 => bytes32[]) circlesByCountry;\n    mapping(bytes32 => mapping(bytes32 => bool)) isCircleExists;\n    bytes32[] public countries;\n\n    address public admin;\n\n    modifier onlyAdmin {\n        require(msg.sender == admin, \"Sender is not the admin of Carrier.\");\n        _;\n    }\n\n    // to be implemented\n    modifier onlyCountryAdmin {\n        _;\n    }\n\n    event PortRequestCreated(address indexed _fromCarrier, address indexed _toCarrier, uint indexed _hashedMobileNo, address _portAddress);\n\n    constructor(bytes32 _carrierId, string _carrierName) public {\n        carrierId = _carrierId;\n        carrierName = _carrierName;\n    }\n\n    function getCirclesByCountry(bytes32 _country) public view returns(bytes32[] circles) {\n        return circlesByCountry[_country];\n    }\n\n    function getCountries() public view returns(bytes32[] _countries) {\n        return countries;\n    }\n\n    function circleExists(bytes32 _country, bytes32 _circle) public view returns(bool circlePresent) {\n        return isCircleExists[_country][_circle];\n    }\n\n    function createPortRequest(address _fromCarrier, address _toCarrier, bytes32 _toCountry, bytes32 _toCircle, uint _hashedMobileNo) public {\n        address port = new Port(_fromCarrier, _toCarrier, _toCountry, _toCircle, _hashedMobileNo);\n        emit PortRequestCreated(_fromCarrier, _toCarrier, _hashedMobileNo, port);\n    }\n\n    function addCountry(bytes32 _country, bytes32[] _circles) public onlyAdmin {\n        countries.push(_country);\n        circlesByCountry[_country] = _circles;\n        // mapping(bytes32 => bool) countryCircles;\n        for(uint i = 0; i < _circles.length; i++) {\n            isCircleExists[_country][_circles[i]] = true;\n        }\n    }\n\n    function addCircle(bytes32 _country, bytes32 _circle) public onlyAdmin {\n        isCircleExists[_country][_circle] = true;\n        circlesByCountry[_country].push(_circle);\n    }\n\n    function acceptPortRequest(address _port) public {\n        Port(_port).fromCarrierAccept();\n    }\n\n    function rejectPortRequest(address _port) public {\n        Port(_port).fromCarrierReject();\n    }\n\n    function portCompleted(address _port) public {\n        Port(_port).portCompleted();\n    }\n}",
  "sourcePath": "/home/prateek/Desktop/consensys/hackathon/consensysHackathonIITD/blockchain/contracts/Carrier.sol",
  "compiler": {
    "name": "solc",
    "version": "0.4.24+commit.e67f0147.Emscripten.clang"
  },
  "schemaVersion": "2.0.1",
  "updatedAt": "2018-07-14T06:42:20.477Z"
}