{
  "contractName": "Port",
  "abi": [
    {
      "inputs": [
        {
          "name": "_fromCarrier",
          "type": "address"
        },
        {
          "name": "_toCarrier",
          "type": "address"
        },
        {
          "name": "toCountry",
          "type": "bytes32"
        },
        {
          "name": "toCircle",
          "type": "bytes32"
        },
        {
          "name": "_hashedMobileNumber",
          "type": "uint256"
        }
      ],
      "payable": false,
      "stateMutability": "nonpayable",
      "type": "constructor"
    },
    {
      "anonymous": false,
      "inputs": [
        {
          "indexed": false,
          "name": "fromCarrier",
          "type": "address"
        }
      ],
      "name": "FromCarrierAccepted",
      "type": "event"
    },
    {
      "anonymous": false,
      "inputs": [
        {
          "indexed": false,
          "name": "fromCarrier",
          "type": "address"
        }
      ],
      "name": "FromCarrierRejected",
      "type": "event"
    },
    {
      "anonymous": false,
      "inputs": [
        {
          "indexed": false,
          "name": "toCarrier",
          "type": "address"
        }
      ],
      "name": "PortCompleted",
      "type": "event"
    },
    {
      "constant": false,
      "inputs": [],
      "name": "fromCarrierAccept",
      "outputs": [],
      "payable": false,
      "stateMutability": "nonpayable",
      "type": "function"
    },
    {
      "constant": false,
      "inputs": [],
      "name": "fromCarrierReject",
      "outputs": [],
      "payable": false,
      "stateMutability": "nonpayable",
      "type": "function"
    },
    {
      "constant": false,
      "inputs": [],
      "name": "portCompleted",
      "outputs": [],
      "payable": false,
      "stateMutability": "nonpayable",
      "type": "function"
    }
  ],
  "bytecode": "0x608060405234801561001057600080fd5b5060405160a08061047c8339810180604052810190808051906020019092919080519060200190929190805190602001909291908051906020019092919080519060200190929190505050846000806101000a81548173ffffffffffffffffffffffffffffffffffffffff021916908373ffffffffffffffffffffffffffffffffffffffff16021790555083600160006101000a81548173ffffffffffffffffffffffffffffffffffffffff021916908373ffffffffffffffffffffffffffffffffffffffff160217905550806005819055505050505050610385806100f76000396000f300608060405260043610610057576000357c0100000000000000000000000000000000000000000000000000000000900463ffffffff168063a6e3ea721461005c578063dfc1582f14610073578063e2b353d21461008a575b600080fd5b34801561006857600080fd5b506100716100a1565b005b34801561007f57600080fd5b50610088610152565b005b34801561009657600080fd5b5061009f610203565b005b6040805190810160405280600881526020017f6163636570746564000000000000000000000000000000000000000000000000815250600490805190602001906100ec9291906102b4565b507f3e4dab15f6ea270908e54b8361545c06cac6c1088a767c2755f9223406e8cee533604051808273ffffffffffffffffffffffffffffffffffffffff1673ffffffffffffffffffffffffffffffffffffffff16815260200191505060405180910390a1565b6040805190810160405280600981526020017f636f6d706c6574656400000000000000000000000000000000000000000000008152506004908051906020019061019d9291906102b4565b507f127354a75bbb1a400d82f886face56aecfa33a2a1109d4a6cca59c830cc95e6833604051808273ffffffffffffffffffffffffffffffffffffffff1673ffffffffffffffffffffffffffffffffffffffff16815260200191505060405180910390a1565b6040805190810160405280600881526020017f72656a65637465640000000000000000000000000000000000000000000000008152506004908051906020019061024e9291906102b4565b507f7c34b7e2e9d9c39c7d52371fc6afd7583430b08591259b3f5d6bb4b759fa57f633604051808273ffffffffffffffffffffffffffffffffffffffff1673ffffffffffffffffffffffffffffffffffffffff16815260200191505060405180910390a1565b828054600181600116156101000203166002900490600052602060002090601f016020900481019282601f106102f557805160ff1916838001178555610323565b82800160010185558215610323579182015b82811115610322578251825591602001919060010190610307565b5b5090506103309190610334565b5090565b61035691905b8082111561035257600081600090555060010161033a565b5090565b905600a165627a7a72305820de129eea85ae4f52df9c1592a82745c94217430c39de0e06c2f93c51313bbcd10029",
  "source": "pragma solidity 0.4.24;\n\ncontract Port {\n    address fromCarrier;\n    address toCarrier;\n    bytes32 toCountry;\n    bytes32 toCircle;\n    string portStatus;\n\n    uint hashedMobileNumber;\n\n    event FromCarrierAccepted(address fromCarrier);\n    event FromCarrierRejected(address fromCarrier);\n    event PortCompleted(address toCarrier);\n\n    modifier onlyFromCarrier {\n        require(msg.sender == fromCarrier, \"sender is not the from carrier\");\n        _;\n    }\n\n    modifier onlyToCarrier {\n        require(msg.sender == toCarrier, \"sender is not the to carrier\");\n        _;\n    }\n\n    constructor(address _fromCarrier, address _toCarrier, bytes32 toCountry, bytes32 toCircle, uint _hashedMobileNumber) public {\n        fromCarrier = _fromCarrier;\n        toCarrier = _toCarrier;\n        hashedMobileNumber = _hashedMobileNumber;\n    }\n\n    function fromCarrierAccept() public {\n        portStatus = \"accepted\";\n        emit FromCarrierAccepted(msg.sender);\n    }\n\n    function fromCarrierReject() public {\n        portStatus = \"rejected\";\n        emit FromCarrierRejected(msg.sender);\n    }\n\n    function portCompleted() public {\n        portStatus = \"completed\";\n        emit PortCompleted(msg.sender);\n    }\n}",
  "sourcePath": "/home/prateek/Desktop/consensys/hackathon/consensysHackathonIITD/blockchain/contracts/Port.sol",
  "compiler": {
    "name": "solc",
    "version": "0.4.24+commit.e67f0147.Emscripten.clang"
  },
  "schemaVersion": "2.0.1",
  "updatedAt": "2018-07-14T06:42:20.481Z"
}