{
  "contractName": "OnBoardCarrier",
  "abi": [
    {
      "constant": true,
      "inputs": [
        {
          "name": "",
          "type": "bytes32"
        }
      ],
      "name": "carrierIdMap",
      "outputs": [
        {
          "name": "",
          "type": "address"
        }
      ],
      "payable": false,
      "stateMutability": "view",
      "type": "function"
    },
    {
      "inputs": [
        {
          "name": "_admin",
          "type": "address"
        }
      ],
      "payable": false,
      "stateMutability": "nonpayable",
      "type": "constructor"
    },
    {
      "constant": false,
      "inputs": [
        {
          "name": "_carrierId",
          "type": "bytes32"
        },
        {
          "name": "_carrierName",
          "type": "string"
        }
      ],
      "name": "addCarrier",
      "outputs": [],
      "payable": false,
      "stateMutability": "nonpayable",
      "type": "function"
    }
  ],
  "bytecode": "0x608060405234801561001057600080fd5b506040516020806115498339810180604052810190808051906020019092919050505080600160006101000a81548173ffffffffffffffffffffffffffffffffffffffff021916908373ffffffffffffffffffffffffffffffffffffffff160217905550506114c5806100846000396000f30060806040526004361061004c576000357c0100000000000000000000000000000000000000000000000000000000900463ffffffff1680637909f84414610051578063cab0f772146100c8575b600080fd5b34801561005d57600080fd5b506100c66004803603810190808035600019169060200190929190803590602001908201803590602001908080601f0160208091040260200160405190810160405280939291908181526020018383808284378201915050505050509192919290505050610139565b005b3480156100d457600080fd5b506100f76004803603810190808035600019169060200190929190505050610240565b604051808273ffffffffffffffffffffffffffffffffffffffff1673ffffffffffffffffffffffffffffffffffffffff16815260200191505060405180910390f35b60008282610145610273565b80836000191660001916815260200180602001828103825283818151815260200191508051906020019080838360005b83811015610190578082015181840152602081019050610175565b50505050905090810190601f1680156101bd5780820380516001836020036101000a031916815260200191505b509350505050604051809103906000f0801580156101df573d6000803e3d6000fd5b50905080600080856000191660001916815260200190815260200160002060006101000a81548173ffffffffffffffffffffffffffffffffffffffff021916908373ffffffffffffffffffffffffffffffffffffffff160217905550505050565b60006020528060005260406000206000915054906101000a900473ffffffffffffffffffffffffffffffffffffffff1681565b60405161121680610284833901905600608060405234801561001057600080fd5b5060405161121638038061121683398101806040528101908080519060200190929190805182019291905050508160008160001916905550806001908051906020019061005e929190610066565b50505061010b565b828054600181600116156101000203166002900490600052602060002090601f016020900481019282601f106100a757805160ff19168380011785556100d5565b828001600101855582156100d5579182015b828111156100d45782518255916020019190600101906100b9565b5b5090506100e291906100e6565b5090565b61010891905b808211156101045760008160009055506001016100ec565b5090565b90565b6110fc8061011a6000396000f3006080604052600436106100ba576000357c0100000000000000000000000000000000000000000000000000000000900463ffffffff1680630241c5a8146100bf57806308e9daa51461010257806351fb79391461014b57806376cdebe21461018e57806380ba2de4146101cd5780638ece96751461020057806394221c7e14610243578063b91a3ff2146102c9578063cd63175d14610320578063f05d1bf1146103ad578063f1bb2a1d1461043d578063f851a440146104b1575b600080fd5b3480156100cb57600080fd5b50610100600480360381019080803573ffffffffffffffffffffffffffffffffffffffff169060200190929190505050610508565b005b34801561010e57600080fd5b5061012d60048036038101908080359060200190929190505050610587565b60405180826000191660001916815260200191505060405180910390f35b34801561015757600080fd5b5061018c600480360381019080803573ffffffffffffffffffffffffffffffffffffffff1690602001909291905050506105aa565b005b34801561019a57600080fd5b506101cb60048036038101908080356000191690602001909291908035600019169060200190929190505050610629565b005b3480156101d957600080fd5b506101e26107b0565b60405180826000191660001916815260200191505060405180910390f35b34801561020c57600080fd5b50610241600480360381019080803573ffffffffffffffffffffffffffffffffffffffff1690602001909291905050506107b6565b005b34801561024f57600080fd5b506102726004803603810190808035600019169060200190929190505050610835565b6040518080602001828103825283818151815260200191508051906020019060200280838360005b838110156102b557808201518184015260208101905061029a565b505050509050019250505060405180910390f35b3480156102d557600080fd5b50610306600480360381019080803560001916906020019092919080356000191690602001909291905050506108ac565b604051808215151515815260200191505060405180910390f35b34801561032c57600080fd5b506103ab600480360381019080803573ffffffffffffffffffffffffffffffffffffffff169060200190929190803573ffffffffffffffffffffffffffffffffffffffff1690602001909291908035600019169060200190929190803560001916906020019092919080356000191690602001909291905050506108f8565b005b3480156103b957600080fd5b506103c2610a5a565b6040518080602001828103825283818151815260200191508051906020019080838360005b838110156104025780820151818401526020810190506103e7565b50505050905090810190601f16801561042f5780820380516001836020036101000a031916815260200191505b509250505060405180910390f35b34801561044957600080fd5b506104af600480360381019080803560001916906020019092919080359060200190820180359060200190808060200260200160405190810160405280939291908181526020018383602002808284378201915050505050509192919290505050610af8565b005b3480156104bd57600080fd5b506104c6610ccb565b604051808273ffffffffffffffffffffffffffffffffffffffff1673ffffffffffffffffffffffffffffffffffffffff16815260200191505060405180910390f35b8073ffffffffffffffffffffffffffffffffffffffff1663dfc1582f6040518163ffffffff167c0100000000000000000000000000000000000000000000000000000000028152600401600060405180830381600087803b15801561056c57600080fd5b505af1158015610580573d6000803e3d6000fd5b5050505050565b60048181548110151561059657fe5b906000526020600020016000915090505481565b8073ffffffffffffffffffffffffffffffffffffffff1663e2b353d26040518163ffffffff167c0100000000000000000000000000000000000000000000000000000000028152600401600060405180830381600087803b15801561060e57600080fd5b505af1158015610622573d6000803e3d6000fd5b5050505050565b600560009054906101000a900473ffffffffffffffffffffffffffffffffffffffff1673ffffffffffffffffffffffffffffffffffffffff163373ffffffffffffffffffffffffffffffffffffffff16141515610714576040517f08c379a00000000000000000000000000000000000000000000000000000000081526004018080602001828103825260238152602001807f53656e646572206973206e6f74207468652061646d696e206f6620436172726981526020017f65722e000000000000000000000000000000000000000000000000000000000081525060400191505060405180910390fd5b60016003600084600019166000191681526020019081526020016000206000836000191660001916815260200190815260200160002060006101000a81548160ff0219169083151502179055506002600083600019166000191681526020019081526020016000208190806001815401808255809150509060018203906000526020600020016000909192909190915090600019169055505050565b60005481565b8073ffffffffffffffffffffffffffffffffffffffff1663a6e3ea726040518163ffffffff167c0100000000000000000000000000000000000000000000000000000000028152600401600060405180830381600087803b15801561081a57600080fd5b505af115801561082e573d6000803e3d6000fd5b5050505050565b60606002600083600019166000191681526020019081526020016000208054806020026020016040519081016040528092919081815260200182805480156108a057602002820191906000526020600020905b81546000191681526020019060010190808311610888575b50505050509050919050565b60006003600084600019166000191681526020019081526020016000206000836000191660001916815260200190815260200160002060009054906101000a900460ff16905092915050565b60008585858585610907610cf1565b808673ffffffffffffffffffffffffffffffffffffffff1673ffffffffffffffffffffffffffffffffffffffff1681526020018573ffffffffffffffffffffffffffffffffffffffff1673ffffffffffffffffffffffffffffffffffffffff16815260200184600019166000191681526020018360001916600019168152602001826000191660001916815260200195505050505050604051809103906000f0801580156109b9573d6000803e3d6000fd5b50905081600019168573ffffffffffffffffffffffffffffffffffffffff168773ffffffffffffffffffffffffffffffffffffffff167f7738cdde9992a038a85d19854204d198e903b250414daa5c026d3f8c1f02863384604051808273ffffffffffffffffffffffffffffffffffffffff1673ffffffffffffffffffffffffffffffffffffffff16815260200191505060405180910390a4505050505050565b60018054600181600116156101000203166002900480601f016020809104026020016040519081016040528092919081815260200182805460018160011615610100020316600290048015610af05780601f10610ac557610100808354040283529160200191610af0565b820191906000526020600020905b815481529060010190602001808311610ad357829003601f168201915b505050505081565b6000600560009054906101000a900473ffffffffffffffffffffffffffffffffffffffff1673ffffffffffffffffffffffffffffffffffffffff163373ffffffffffffffffffffffffffffffffffffffff16141515610be5576040517f08c379a00000000000000000000000000000000000000000000000000000000081526004018080602001828103825260238152602001807f53656e646572206973206e6f74207468652061646d696e206f6620436172726981526020017f65722e000000000000000000000000000000000000000000000000000000000081525060400191505060405180910390fd5b6004839080600181540180825580915050906001820390600052602060002001600090919290919091509060001916905550816002600085600019166000191681526020019081526020016000209080519060200190610c46929190610d01565b50600090505b8151811015610cc657600160036000856000191660001916815260200190815260200160002060008484815181101515610c8257fe5b906020019060200201516000191660001916815260200190815260200160002060006101000a81548160ff0219169083151502179055508080600101915050610c4c565b505050565b600560009054906101000a900473ffffffffffffffffffffffffffffffffffffffff1681565b60405161035780610d7a83390190565b828054828255906000526020600020908101928215610d43579160200282015b82811115610d42578251829060001916905591602001919060010190610d21565b5b509050610d509190610d54565b5090565b610d7691905b80821115610d72576000816000905550600101610d5a565b5090565b905600608060405234801561001057600080fd5b5060405160a0806103578339810180604052810190808051906020019092919080519060200190929190805190602001909291908051906020019092919080519060200190929190505050846000806101000a81548173ffffffffffffffffffffffffffffffffffffffff021916908373ffffffffffffffffffffffffffffffffffffffff16021790555083600160006101000a81548173ffffffffffffffffffffffffffffffffffffffff021916908373ffffffffffffffffffffffffffffffffffffffff1602179055508060058160001916905550505050505061025c806100fb6000396000f300608060405260043610610057576000357c0100000000000000000000000000000000000000000000000000000000900463ffffffff168063a6e3ea721461005c578063dfc1582f14610073578063e2b353d21461008a575b600080fd5b34801561006857600080fd5b506100716100a1565b005b34801561007f57600080fd5b506100886100ef565b005b34801561009657600080fd5b5061009f61013d565b005b6040805190810160405280600881526020017f6163636570746564000000000000000000000000000000000000000000000000815250600490805190602001906100ec92919061018b565b50565b6040805190810160405280600981526020017f636f6d706c6574656400000000000000000000000000000000000000000000008152506004908051906020019061013a92919061018b565b50565b6040805190810160405280600881526020017f72656a65637465640000000000000000000000000000000000000000000000008152506004908051906020019061018892919061018b565b50565b828054600181600116156101000203166002900490600052602060002090601f016020900481019282601f106101cc57805160ff19168380011785556101fa565b828001600101855582156101fa579182015b828111156101f95782518255916020019190600101906101de565b5b509050610207919061020b565b5090565b61022d91905b80821115610229576000816000905550600101610211565b5090565b905600a165627a7a72305820e35369780304d41162ee5e77bc049946520e33196351aee17f1da9d8673a09410029a165627a7a7230582065e94d86fe69406ca2cab99687f9085e3e1a3a9b53f5d3b91b9f204ea18785430029a165627a7a7230582039d490bf14ee67b00e6b24bc5a2dee36b8dcb5ebb1d59ac9f84c4f926aa9b8c00029",
  "source": "pragma solidity 0.4.24;\n\nimport \"./Carrier.sol\";\n\ncontract OnBoardCarrier {\n    mapping(bytes32 => address) public carrierIdMap;\n    address admin;\n\n    constructor(address _admin) public {\n        admin = _admin;\n    }\n\n    function addCarrier(bytes32 _carrierId, string _carrierName) public {\n        address carrier = new Carrier(_carrierId, _carrierName);\n        carrierIdMap[_carrierId] = carrier;\n    }\n}",
  "sourcePath": "/home/prateek/Desktop/consensys/hackathon/consensysHackathonIITD/blockchain/contracts/onBoardCarrier.sol",
  "compiler": {
    "name": "solc",
    "version": "0.4.24+commit.e67f0147.Emscripten.clang"
  },
  "schemaVersion": "2.0.1",
  "updatedAt": "2018-07-13T22:20:45.460Z"
}