{
  "contractName": "Port",
  "abi": [
    {
      "inputs": [
        {
          "name": "_fromCarrier",
          "type": "address"
        },
        {
          "name": "_toCarrier",
          "type": "address"
        },
        {
          "name": "toCountry",
          "type": "bytes32"
        },
        {
          "name": "toCircle",
          "type": "bytes32"
        },
        {
          "name": "_hashedMobileNumber",
          "type": "bytes32"
        }
      ],
      "payable": false,
      "stateMutability": "nonpayable",
      "type": "constructor"
    },
    {
      "constant": false,
      "inputs": [],
      "name": "fromCarrierAccept",
      "outputs": [],
      "payable": false,
      "stateMutability": "nonpayable",
      "type": "function"
    },
    {
      "constant": false,
      "inputs": [],
      "name": "fromCarrierReject",
      "outputs": [],
      "payable": false,
      "stateMutability": "nonpayable",
      "type": "function"
    },
    {
      "constant": false,
      "inputs": [],
      "name": "portCompleted",
      "outputs": [],
      "payable": false,
      "stateMutability": "nonpayable",
      "type": "function"
    }
  ],
  "bytecode": "0x608060405234801561001057600080fd5b5060405160a0806103578339810180604052810190808051906020019092919080519060200190929190805190602001909291908051906020019092919080519060200190929190505050846000806101000a81548173ffffffffffffffffffffffffffffffffffffffff021916908373ffffffffffffffffffffffffffffffffffffffff16021790555083600160006101000a81548173ffffffffffffffffffffffffffffffffffffffff021916908373ffffffffffffffffffffffffffffffffffffffff1602179055508060058160001916905550505050505061025c806100fb6000396000f300608060405260043610610057576000357c0100000000000000000000000000000000000000000000000000000000900463ffffffff168063a6e3ea721461005c578063dfc1582f14610073578063e2b353d21461008a575b600080fd5b34801561006857600080fd5b506100716100a1565b005b34801561007f57600080fd5b506100886100ef565b005b34801561009657600080fd5b5061009f61013d565b005b6040805190810160405280600881526020017f6163636570746564000000000000000000000000000000000000000000000000815250600490805190602001906100ec92919061018b565b50565b6040805190810160405280600981526020017f636f6d706c6574656400000000000000000000000000000000000000000000008152506004908051906020019061013a92919061018b565b50565b6040805190810160405280600881526020017f72656a65637465640000000000000000000000000000000000000000000000008152506004908051906020019061018892919061018b565b50565b828054600181600116156101000203166002900490600052602060002090601f016020900481019282601f106101cc57805160ff19168380011785556101fa565b828001600101855582156101fa579182015b828111156101f95782518255916020019190600101906101de565b5b509050610207919061020b565b5090565b61022d91905b80821115610229576000816000905550600101610211565b5090565b905600a165627a7a72305820e35369780304d41162ee5e77bc049946520e33196351aee17f1da9d8673a09410029",
  "source": "pragma solidity 0.4.24;\n\ncontract Port {\n    address fromCarrier;\n    address toCarrier;\n    bytes32 toCountry;\n    bytes32 toCircle;\n    string portStatus;\n\n    bytes32 hashedMobileNumber;\n\n    modifier onlyFromCarrier {\n        require(msg.sender == fromCarrier, \"sender is not the from carrier\");\n        _;\n    }\n\n    modifier onlyToCarrier {\n        require(msg.sender == toCarrier, \"sender is not the to carrier\");\n        _;\n    }\n\n    constructor(address _fromCarrier, address _toCarrier, bytes32 toCountry, bytes32 toCircle, bytes32 _hashedMobileNumber) public {\n        fromCarrier = _fromCarrier;\n        toCarrier = _toCarrier;\n        hashedMobileNumber = _hashedMobileNumber;\n    }\n\n    function fromCarrierAccept() public {\n        portStatus = \"accepted\";\n    }\n\n    function fromCarrierReject() public {\n        portStatus = \"rejected\";\n    }\n\n    function portCompleted() public {\n        portStatus = \"completed\";\n    }\n}",
  "sourcePath": "/home/prateek/Desktop/consensys/hackathon/consensysHackathonIITD/blockchain/contracts/Port.sol",
  "compiler": {
    "name": "solc",
    "version": "0.4.24+commit.e67f0147.Emscripten.clang"
  },
  "schemaVersion": "2.0.1",
  "updatedAt": "2018-07-13T22:20:44.610Z"
}