{
  "contractName": "Carrier",
  "abi": [
    {
      "constant": true,
      "inputs": [
        {
          "name": "",
          "type": "uint256"
        }
      ],
      "name": "countries",
      "outputs": [
        {
          "name": "",
          "type": "bytes32"
        }
      ],
      "payable": false,
      "stateMutability": "view",
      "type": "function"
    },
    {
      "constant": true,
      "inputs": [],
      "name": "carrierId",
      "outputs": [
        {
          "name": "",
          "type": "string"
        }
      ],
      "payable": false,
      "stateMutability": "view",
      "type": "function"
    },
    {
      "constant": true,
      "inputs": [
        {
          "name": "",
          "type": "bytes32"
        },
        {
          "name": "",
          "type": "uint256"
        }
      ],
      "name": "circlesByCountry",
      "outputs": [
        {
          "name": "",
          "type": "bytes32"
        }
      ],
      "payable": false,
      "stateMutability": "view",
      "type": "function"
    },
    {
      "constant": true,
      "inputs": [
        {
          "name": "",
          "type": "bytes32"
        },
        {
          "name": "",
          "type": "bytes32"
        }
      ],
      "name": "isCircleExists",
      "outputs": [
        {
          "name": "",
          "type": "bool"
        }
      ],
      "payable": false,
      "stateMutability": "view",
      "type": "function"
    },
    {
      "constant": true,
      "inputs": [],
      "name": "carrierName",
      "outputs": [
        {
          "name": "",
          "type": "string"
        }
      ],
      "payable": false,
      "stateMutability": "view",
      "type": "function"
    },
    {
      "constant": true,
      "inputs": [],
      "name": "admin",
      "outputs": [
        {
          "name": "",
          "type": "address"
        }
      ],
      "payable": false,
      "stateMutability": "view",
      "type": "function"
    },
    {
      "inputs": [
        {
          "name": "_carrierId",
          "type": "string"
        },
        {
          "name": "_carrierName",
          "type": "string"
        }
      ],
      "payable": false,
      "stateMutability": "nonpayable",
      "type": "constructor"
    },
    {
      "anonymous": false,
      "inputs": [
        {
          "indexed": true,
          "name": "_fromCarrier",
          "type": "address"
        },
        {
          "indexed": true,
          "name": "_toCarrier",
          "type": "address"
        },
        {
          "indexed": true,
          "name": "_hashedMobileNo",
          "type": "bytes32"
        },
        {
          "indexed": false,
          "name": "_portAddress",
          "type": "address"
        }
      ],
      "name": "PortRequestCreated",
      "type": "event"
    },
    {
      "constant": false,
      "inputs": [
        {
          "name": "_fromCarrier",
          "type": "address"
        },
        {
          "name": "_toCarrier",
          "type": "address"
        },
        {
          "name": "_hashedMobileNo",
          "type": "bytes32"
        }
      ],
      "name": "createPortRequest",
      "outputs": [],
      "payable": false,
      "stateMutability": "nonpayable",
      "type": "function"
    },
    {
      "constant": false,
      "inputs": [
        {
          "name": "_country",
          "type": "bytes32"
        },
        {
          "name": "_circles",
          "type": "bytes32[]"
        }
      ],
      "name": "addCountry",
      "outputs": [],
      "payable": false,
      "stateMutability": "nonpayable",
      "type": "function"
    },
    {
      "constant": false,
      "inputs": [
        {
          "name": "_country",
          "type": "bytes32"
        },
        {
          "name": "_circle",
          "type": "bytes32"
        }
      ],
      "name": "addCircle",
      "outputs": [],
      "payable": false,
      "stateMutability": "nonpayable",
      "type": "function"
    },
    {
      "constant": false,
      "inputs": [
        {
          "name": "_port",
          "type": "address"
        }
      ],
      "name": "acceptPortRequest",
      "outputs": [],
      "payable": false,
      "stateMutability": "nonpayable",
      "type": "function"
    },
    {
      "constant": false,
      "inputs": [
        {
          "name": "_port",
          "type": "address"
        }
      ],
      "name": "rejectPortRequest",
      "outputs": [],
      "payable": false,
      "stateMutability": "nonpayable",
      "type": "function"
    },
    {
      "constant": false,
      "inputs": [
        {
          "name": "_port",
          "type": "address"
        }
      ],
      "name": "portCompleted",
      "outputs": [],
      "payable": false,
      "stateMutability": "nonpayable",
      "type": "function"
    }
  ],
  "bytecode": "0x608060405234801561001057600080fd5b5060405161123038038061123083398101806040528101908080518201929190602001805182019291905050508160009080519060200190610053929190610072565b50806001908051906020019061006a929190610072565b505050610117565b828054600181600116156101000203166002900490600052602060002090601f016020900481019282601f106100b357805160ff19168380011785556100e1565b828001600101855582156100e1579182015b828111156100e05782518255916020019190600101906100c5565b5b5090506100ee91906100f2565b5090565b61011491905b808211156101105760008160009055506001016100f8565b5090565b90565b61110a806101266000396000f3006080604052600436106100ba576000357c0100000000000000000000000000000000000000000000000000000000900463ffffffff1680630241c5a8146100bf57806308e9daa51461010257806351fb79391461014b57806376cdebe21461018e57806380ba2de4146101cd5780638ece96751461025d578063a61af49c146102a0578063c67043f414610311578063eb7cc4a014610368578063f05d1bf1146103bf578063f1bb2a1d1461044f578063f851a440146104c3575b600080fd5b3480156100cb57600080fd5b50610100600480360381019080803573ffffffffffffffffffffffffffffffffffffffff16906020019092919050505061051a565b005b34801561010e57600080fd5b5061012d60048036038101908080359060200190929190505050610599565b60405180826000191660001916815260200191505060405180910390f35b34801561015757600080fd5b5061018c600480360381019080803573ffffffffffffffffffffffffffffffffffffffff1690602001909291905050506105bc565b005b34801561019a57600080fd5b506101cb6004803603810190808035600019169060200190929190803560001916906020019092919050505061063b565b005b3480156101d957600080fd5b506101e26107c2565b6040518080602001828103825283818151815260200191508051906020019080838360005b83811015610222578082015181840152602081019050610207565b50505050905090810190601f16801561024f5780820380516001836020036101000a031916815260200191505b509250505060405180910390f35b34801561026957600080fd5b5061029e600480360381019080803573ffffffffffffffffffffffffffffffffffffffff169060200190929190505050610860565b005b3480156102ac57600080fd5b5061030f600480360381019080803573ffffffffffffffffffffffffffffffffffffffff169060200190929190803573ffffffffffffffffffffffffffffffffffffffff16906020019092919080356000191690602001909291905050506108df565b005b34801561031d57600080fd5b5061034a600480360381019080803560001916906020019092919080359060200190929190505050610a1f565b60405180826000191660001916815260200191505060405180910390f35b34801561037457600080fd5b506103a560048036038101908080356000191690602001909291908035600019169060200190929190505050610a4f565b604051808215151515815260200191505060405180910390f35b3480156103cb57600080fd5b506103d4610a7e565b6040518080602001828103825283818151815260200191508051906020019080838360005b838110156104145780820151818401526020810190506103f9565b50505050905090810190601f1680156104415780820380516001836020036101000a031916815260200191505b509250505060405180910390f35b34801561045b57600080fd5b506104c1600480360381019080803560001916906020019092919080359060200190820180359060200190808060200260200160405190810160405280939291908181526020018383602002808284378201915050505050509192919290505050610b1c565b005b3480156104cf57600080fd5b506104d8610cef565b604051808273ffffffffffffffffffffffffffffffffffffffff1673ffffffffffffffffffffffffffffffffffffffff16815260200191505060405180910390f35b8073ffffffffffffffffffffffffffffffffffffffff1663dfc1582f6040518163ffffffff167c0100000000000000000000000000000000000000000000000000000000028152600401600060405180830381600087803b15801561057e57600080fd5b505af1158015610592573d6000803e3d6000fd5b5050505050565b6004818154811015156105a857fe5b906000526020600020016000915090505481565b8073ffffffffffffffffffffffffffffffffffffffff1663e2b353d26040518163ffffffff167c0100000000000000000000000000000000000000000000000000000000028152600401600060405180830381600087803b15801561062057600080fd5b505af1158015610634573d6000803e3d6000fd5b5050505050565b600560009054906101000a900473ffffffffffffffffffffffffffffffffffffffff1673ffffffffffffffffffffffffffffffffffffffff163373ffffffffffffffffffffffffffffffffffffffff16141515610726576040517f08c379a00000000000000000000000000000000000000000000000000000000081526004018080602001828103825260238152602001807f53656e646572206973206e6f74207468652061646d696e206f6620436172726981526020017f65722e000000000000000000000000000000000000000000000000000000000081525060400191505060405180910390fd5b60016003600084600019166000191681526020019081526020016000206000836000191660001916815260200190815260200160002060006101000a81548160ff0219169083151502179055506002600083600019166000191681526020019081526020016000208190806001815401808255809150509060018203906000526020600020016000909192909190915090600019169055505050565b60008054600181600116156101000203166002900480601f0160208091040260200160405190810160405280929190818152602001828054600181600116156101000203166002900480156108585780601f1061082d57610100808354040283529160200191610858565b820191906000526020600020905b81548152906001019060200180831161083b57829003601f168201915b505050505081565b8073ffffffffffffffffffffffffffffffffffffffff1663a6e3ea726040518163ffffffff167c0100000000000000000000000000000000000000000000000000000000028152600401600060405180830381600087803b1580156108c457600080fd5b505af11580156108d8573d6000803e3d6000fd5b5050505050565b60008383836108ec610d15565b808473ffffffffffffffffffffffffffffffffffffffff1673ffffffffffffffffffffffffffffffffffffffff1681526020018373ffffffffffffffffffffffffffffffffffffffff1673ffffffffffffffffffffffffffffffffffffffff16815260200182600019166000191681526020019350505050604051809103906000f080158015610980573d6000803e3d6000fd5b50905081600019168373ffffffffffffffffffffffffffffffffffffffff168573ffffffffffffffffffffffffffffffffffffffff167f7738cdde9992a038a85d19854204d198e903b250414daa5c026d3f8c1f02863384604051808273ffffffffffffffffffffffffffffffffffffffff1673ffffffffffffffffffffffffffffffffffffffff16815260200191505060405180910390a450505050565b600260205281600052604060002081815481101515610a3a57fe5b90600052602060002001600091509150505481565b60036020528160005260406000206020528060005260406000206000915091509054906101000a900460ff1681565b60018054600181600116156101000203166002900480601f016020809104026020016040519081016040528092919081815260200182805460018160011615610100020316600290048015610b145780601f10610ae957610100808354040283529160200191610b14565b820191906000526020600020905b815481529060010190602001808311610af757829003601f168201915b505050505081565b6000600560009054906101000a900473ffffffffffffffffffffffffffffffffffffffff1673ffffffffffffffffffffffffffffffffffffffff163373ffffffffffffffffffffffffffffffffffffffff16141515610c09576040517f08c379a00000000000000000000000000000000000000000000000000000000081526004018080602001828103825260238152602001807f53656e646572206973206e6f74207468652061646d696e206f6620436172726981526020017f65722e000000000000000000000000000000000000000000000000000000000081525060400191505060405180910390fd5b6004839080600181540180825580915050906001820390600052602060002001600090919290919091509060001916905550816002600085600019166000191681526020019081526020016000209080519060200190610c6a929190610d25565b50600090505b8151811015610cea57600160036000856000191660001916815260200190815260200160002060008484815181101515610ca657fe5b906020019060200201516000191660001916815260200190815260200160002060006101000a81548160ff0219169083151502179055508080600101915050610c70565b505050565b600560009054906101000a900473ffffffffffffffffffffffffffffffffffffffff1681565b60405161034180610d9e83390190565b828054828255906000526020600020908101928215610d67579160200282015b82811115610d66578251829060001916905591602001919060010190610d45565b5b509050610d749190610d78565b5090565b610d9a91905b80821115610d96576000816000905550600101610d7e565b5090565b905600608060405234801561001057600080fd5b50604051606080610341833981018060405281019080805190602001909291908051906020019092919080519060200190929190505050826000806101000a81548173ffffffffffffffffffffffffffffffffffffffff021916908373ffffffffffffffffffffffffffffffffffffffff16021790555081600160006101000a81548173ffffffffffffffffffffffffffffffffffffffff021916908373ffffffffffffffffffffffffffffffffffffffff160217905550806003816000191690555050505061025c806100e56000396000f300608060405260043610610057576000357c0100000000000000000000000000000000000000000000000000000000900463ffffffff168063a6e3ea721461005c578063dfc1582f14610073578063e2b353d21461008a575b600080fd5b34801561006857600080fd5b506100716100a1565b005b34801561007f57600080fd5b506100886100ef565b005b34801561009657600080fd5b5061009f61013d565b005b6040805190810160405280600881526020017f6163636570746564000000000000000000000000000000000000000000000000815250600290805190602001906100ec92919061018b565b50565b6040805190810160405280600981526020017f636f6d706c6574656400000000000000000000000000000000000000000000008152506002908051906020019061013a92919061018b565b50565b6040805190810160405280600881526020017f72656a65637465640000000000000000000000000000000000000000000000008152506002908051906020019061018892919061018b565b50565b828054600181600116156101000203166002900490600052602060002090601f016020900481019282601f106101cc57805160ff19168380011785556101fa565b828001600101855582156101fa579182015b828111156101f95782518255916020019190600101906101de565b5b509050610207919061020b565b5090565b61022d91905b80821115610229576000816000905550600101610211565b5090565b905600a165627a7a723058204f2d88c76a81119dbef459c2439e603580aa434fb090f2a77a74d32771692cae0029a165627a7a7230582070cb73e71b1951fbcd17bdc49ab34728b0cea67bfd1e341424243282338f144d0029",
  "source": "pragma solidity 0.4.24;\n\nimport \"./Port.sol\";\n\ncontract Carrier {\n\n    string public carrierId;\n    string public carrierName;\n    mapping(bytes32 => bytes32[]) public circlesByCountry;\n    mapping(bytes32 => mapping(bytes32 => bool)) public isCircleExists;\n    bytes32[] public countries;\n\n    address public admin;\n\n    modifier onlyAdmin {\n        require(msg.sender == admin, \"Sender is not the admin of Carrier.\");\n        _;\n    }\n\n    // to be implemented\n    modifier onlyCountryAdmin {\n        _;\n    }\n\n    event PortRequestCreated(address indexed _fromCarrier, address indexed _toCarrier, bytes32 indexed _hashedMobileNo, address _portAddress);\n\n    constructor(string _carrierId, string _carrierName) public {\n        carrierId = _carrierId;\n        carrierName = _carrierName;\n    }\n\n    function createPortRequest(address _fromCarrier, address _toCarrier, bytes32 _hashedMobileNo) public {\n        address port = new Port(_fromCarrier, _toCarrier, _hashedMobileNo);\n        emit PortRequestCreated(_fromCarrier, _toCarrier, _hashedMobileNo, port);\n    }\n\n    function addCountry(bytes32 _country, bytes32[] _circles) public onlyAdmin {\n        countries.push(_country);\n        circlesByCountry[_country] = _circles;\n        // mapping(bytes32 => bool) countryCircles;\n        for(uint i = 0; i < _circles.length; i++) {\n            isCircleExists[_country][_circles[i]] = true;\n        }\n    }\n\n    function addCircle(bytes32 _country, bytes32 _circle) public onlyAdmin {\n        isCircleExists[_country][_circle] = true;\n        circlesByCountry[_country].push(_circle);\n    }\n\n    function acceptPortRequest(address _port) public {\n        Port(_port).fromCarrierAccept();\n    }\n\n    function rejectPortRequest(address _port) public {\n        Port(_port).fromCarrierReject();\n    }\n\n    function portCompleted(address _port) public {\n        Port(_port).portCompleted();\n    }\n}",
  "sourcePath": "/home/prateek/Desktop/consensys/hackathon/consensysHackathonIITD/blockchain/contracts/Carrier.sol",
  "compiler": {
    "name": "solc",
    "version": "0.4.24+commit.e67f0147.Emscripten.clang"
  },
  "schemaVersion": "2.0.1",
  "updatedAt": "2018-07-13T17:54:49.200Z"
}